{
  "contractName": "UserCrud",
  "abi": [
    {
      "anonymous": false,
      "inputs": [
        {
          "indexed": true,
          "name": "userAddress",
          "type": "address"
        },
        {
          "indexed": false,
          "name": "index",
          "type": "uint256"
        },
        {
          "indexed": false,
          "name": "userEmail",
          "type": "string"
        },
        {
          "indexed": false,
          "name": "userAge",
          "type": "uint256"
        }
      ],
      "name": "LogNewUser",
      "type": "event"
    },
    {
      "anonymous": false,
      "inputs": [
        {
          "indexed": true,
          "name": "userAddress",
          "type": "address"
        },
        {
          "indexed": false,
          "name": "index",
          "type": "uint256"
        },
        {
          "indexed": false,
          "name": "userEmail",
          "type": "string"
        },
        {
          "indexed": false,
          "name": "userAge",
          "type": "uint256"
        }
      ],
      "name": "LogUpdateUser",
      "type": "event"
    },
    {
      "anonymous": false,
      "inputs": [
        {
          "indexed": true,
          "name": "userAddress",
          "type": "address"
        },
        {
          "indexed": false,
          "name": "index",
          "type": "uint256"
        }
      ],
      "name": "LogDeleteUser",
      "type": "event"
    },
    {
      "constant": true,
      "inputs": [
        {
          "name": "userAddress",
          "type": "address"
        }
      ],
      "name": "isUser",
      "outputs": [
        {
          "name": "isIndeed",
          "type": "bool"
        }
      ],
      "payable": false,
      "stateMutability": "view",
      "type": "function"
    },
    {
      "constant": false,
      "inputs": [
        {
          "name": "userAddress",
          "type": "address"
        },
        {
          "name": "userEmail",
          "type": "string"
        },
        {
          "name": "userAge",
          "type": "uint256"
        }
      ],
      "name": "insertUser",
      "outputs": [
        {
          "name": "index",
          "type": "uint256"
        }
      ],
      "payable": false,
      "stateMutability": "nonpayable",
      "type": "function"
    },
    {
      "constant": false,
      "inputs": [
        {
          "name": "userAddress",
          "type": "address"
        }
      ],
      "name": "deleteUser",
      "outputs": [
        {
          "name": "index",
          "type": "uint256"
        }
      ],
      "payable": false,
      "stateMutability": "nonpayable",
      "type": "function"
    },
    {
      "constant": true,
      "inputs": [
        {
          "name": "userAddress",
          "type": "address"
        }
      ],
      "name": "getUser",
      "outputs": [
        {
          "name": "userEmail",
          "type": "string"
        },
        {
          "name": "userAge",
          "type": "uint256"
        },
        {
          "name": "index",
          "type": "uint256"
        }
      ],
      "payable": false,
      "stateMutability": "view",
      "type": "function"
    },
    {
      "constant": false,
      "inputs": [
        {
          "name": "userAddress",
          "type": "address"
        },
        {
          "name": "userEmail",
          "type": "string"
        }
      ],
      "name": "updateUserEmail",
      "outputs": [
        {
          "name": "success",
          "type": "bool"
        }
      ],
      "payable": false,
      "stateMutability": "nonpayable",
      "type": "function"
    },
    {
      "constant": false,
      "inputs": [
        {
          "name": "userAddress",
          "type": "address"
        },
        {
          "name": "userAge",
          "type": "uint256"
        }
      ],
      "name": "updateUserAge",
      "outputs": [
        {
          "name": "success",
          "type": "bool"
        }
      ],
      "payable": false,
      "stateMutability": "nonpayable",
      "type": "function"
    },
    {
      "constant": true,
      "inputs": [],
      "name": "getUserCount",
      "outputs": [
        {
          "name": "count",
          "type": "uint256"
        }
      ],
      "payable": false,
      "stateMutability": "view",
      "type": "function"
    },
    {
      "constant": true,
      "inputs": [
        {
          "name": "index",
          "type": "uint256"
        }
      ],
      "name": "getUserAtIndex",
      "outputs": [
        {
          "name": "userAddress",
          "type": "address"
        }
      ],
      "payable": false,
      "stateMutability": "view",
      "type": "function"
    }
  ],
  "bytecode": "0x608060405234801561001057600080fd5b506110f1806100206000396000f30060806040526004361061008e576000357c0100000000000000000000000000000000000000000000000000000000900463ffffffff1680632e071db3146100935780634209fff1146100f857806352b1e14a146101535780635c60f226146101fa57806364319ae6146102515780636f77926b146102f2578063b5cb15f7146103bc578063ffcc7bbf146103e7575b600080fd5b34801561009f57600080fd5b506100de600480360381019080803573ffffffffffffffffffffffffffffffffffffffff16906020019092919080359060200190929190505050610454565b604051808215151515815260200191505060405180910390f35b34801561010457600080fd5b50610139600480360381019080803573ffffffffffffffffffffffffffffffffffffffff16906020019092919050505061061b565b604051808215151515815260200191505060405180910390f35b34801561015f57600080fd5b506101e4600480360381019080803573ffffffffffffffffffffffffffffffffffffffff169060200190929190803590602001908201803590602001908080601f0160208091040260200160405190810160405280939291908181526020018383808284378201915050505050509192919290803590602001909291905050506106e4565b6040518082815260200191505060405180910390f35b34801561020657600080fd5b5061023b600480360381019080803573ffffffffffffffffffffffffffffffffffffffff169060200190929190505050610956565b6040518082815260200191505060405180910390f35b34801561025d57600080fd5b506102d8600480360381019080803573ffffffffffffffffffffffffffffffffffffffff169060200190929190803590602001908201803590602001908080601f0160208091040260200160405190810160405280939291908181526020018383808284378201915050505050509192919290505050610c62565b604051808215151515815260200191505060405180910390f35b3480156102fe57600080fd5b50610333600480360381019080803573ffffffffffffffffffffffffffffffffffffffff169060200190929190505050610e1d565b6040518080602001848152602001838152602001828103825285818151815260200191508051906020019080838360005b8381101561037f578082015181840152602081019050610364565b50505050905090810190601f1680156103ac5780820380516001836020036101000a031916815260200191505b5094505050505060405180910390f35b3480156103c857600080fd5b506103d1610fa4565b6040518082815260200191505060405180910390f35b3480156103f357600080fd5b5061041260048036038101908080359060200190929190505050610fb1565b604051808273ffffffffffffffffffffffffffffffffffffffff1673ffffffffffffffffffffffffffffffffffffffff16815260200191505060405180910390f35b600061045f8361061b565b151561046a57600080fd5b816000808573ffffffffffffffffffffffffffffffffffffffff1673ffffffffffffffffffffffffffffffffffffffff168152602001908152602001600020600101819055508273ffffffffffffffffffffffffffffffffffffffff167fe0d03264c4e763e1dd9a479aefbd0cb19a8a9045c5629e6fe975e20310cf04b26000808673ffffffffffffffffffffffffffffffffffffffff1673ffffffffffffffffffffffffffffffffffffffff168152602001908152602001600020600201546000808773ffffffffffffffffffffffffffffffffffffffff1673ffffffffffffffffffffffffffffffffffffffff1681526020019081526020016000206000018560405180848152602001806020018381526020018281038252848181546001816001161561010002031660029004815260200191508054600181600116156101000203166002900480156106015780601f106105d657610100808354040283529160200191610601565b820191906000526020600020905b8154815290600101906020018083116105e457829003601f168201915b505094505050505060405180910390a26001905092915050565b600080600180549050141561063357600090506106df565b8173ffffffffffffffffffffffffffffffffffffffff1660016000808573ffffffffffffffffffffffffffffffffffffffff1673ffffffffffffffffffffffffffffffffffffffff1681526020019081526020016000206002015481548110151561069a57fe5b9060005260206000200160009054906101000a900473ffffffffffffffffffffffffffffffffffffffff1673ffffffffffffffffffffffffffffffffffffffff161490505b919050565b60006106ef8461061b565b156106f957600080fd5b826000808673ffffffffffffffffffffffffffffffffffffffff1673ffffffffffffffffffffffffffffffffffffffff168152602001908152602001600020600001908051906020019061074e929190610ff4565b50816000808673ffffffffffffffffffffffffffffffffffffffff1673ffffffffffffffffffffffffffffffffffffffff168152602001908152602001600020600101819055506001808590806001815401808255809150509060018203906000526020600020016000909192909190916101000a81548173ffffffffffffffffffffffffffffffffffffffff021916908373ffffffffffffffffffffffffffffffffffffffff160217905550036000808673ffffffffffffffffffffffffffffffffffffffff1673ffffffffffffffffffffffffffffffffffffffff168152602001908152602001600020600201819055508373ffffffffffffffffffffffffffffffffffffffff167fd6fc9f7fcab9bfd8225c731fcdf3691c6e742993eeea0025153641c63e8f02826000808773ffffffffffffffffffffffffffffffffffffffff1673ffffffffffffffffffffffffffffffffffffffff1681526020019081526020016000206002015485856040518084815260200180602001838152602001828103825284818151815260200191508051906020019080838360005b838110156109095780820151818401526020810190506108ee565b50505050905090810190601f1680156109365780820380516001836020036101000a031916815260200191505b5094505050505060405180910390a2600180805490500390509392505050565b60008060006109648461061b565b151561096f57600080fd5b6000808573ffffffffffffffffffffffffffffffffffffffff1673ffffffffffffffffffffffffffffffffffffffff1681526020019081526020016000206002015491506001808080549050038154811015156109c857fe5b9060005260206000200160009054906101000a900473ffffffffffffffffffffffffffffffffffffffff16905080600183815481101515610a0557fe5b9060005260206000200160006101000a81548173ffffffffffffffffffffffffffffffffffffffff021916908373ffffffffffffffffffffffffffffffffffffffff160217905550816000808373ffffffffffffffffffffffffffffffffffffffff1673ffffffffffffffffffffffffffffffffffffffff168152602001908152602001600020600201819055506001805480919060019003610aa89190611074565b508373ffffffffffffffffffffffffffffffffffffffff167f9a67af531bfbfd34f63109e83cfab08e30f92a1827d5c3f50e8fa815469ff9f2836040518082815260200191505060405180910390a28073ffffffffffffffffffffffffffffffffffffffff167fe0d03264c4e763e1dd9a479aefbd0cb19a8a9045c5629e6fe975e20310cf04b2836000808573ffffffffffffffffffffffffffffffffffffffff1673ffffffffffffffffffffffffffffffffffffffff1681526020019081526020016000206000016000808673ffffffffffffffffffffffffffffffffffffffff1673ffffffffffffffffffffffffffffffffffffffff168152602001908152602001600020600101546040518084815260200180602001838152602001828103825284818154600181600116156101000203166002900481526020019150805460018160011615610100020316600290048015610c485780601f10610c1d57610100808354040283529160200191610c48565b820191906000526020600020905b815481529060010190602001808311610c2b57829003601f168201915b505094505050505060405180910390a28192505050919050565b6000610c6d8361061b565b1515610c7857600080fd5b816000808573ffffffffffffffffffffffffffffffffffffffff1673ffffffffffffffffffffffffffffffffffffffff1681526020019081526020016000206000019080519060200190610ccd929190610ff4565b508273ffffffffffffffffffffffffffffffffffffffff167fe0d03264c4e763e1dd9a479aefbd0cb19a8a9045c5629e6fe975e20310cf04b26000808673ffffffffffffffffffffffffffffffffffffffff1673ffffffffffffffffffffffffffffffffffffffff16815260200190815260200160002060020154846000808873ffffffffffffffffffffffffffffffffffffffff1673ffffffffffffffffffffffffffffffffffffffff168152602001908152602001600020600101546040518084815260200180602001838152602001828103825284818151815260200191508051906020019080838360005b83811015610dd7578082015181840152602081019050610dbc565b50505050905090810190601f168015610e045780820380516001836020036101000a031916815260200191505b5094505050505060405180910390a26001905092915050565b6060600080610e2b8461061b565b1515610e3657600080fd5b6000808573ffffffffffffffffffffffffffffffffffffffff1673ffffffffffffffffffffffffffffffffffffffff1681526020019081526020016000206000016000808673ffffffffffffffffffffffffffffffffffffffff1673ffffffffffffffffffffffffffffffffffffffff168152602001908152602001600020600101546000808773ffffffffffffffffffffffffffffffffffffffff1673ffffffffffffffffffffffffffffffffffffffff16815260200190815260200160002060020154828054600181600116156101000203166002900480601f016020809104026020016040519081016040528092919081815260200182805460018160011615610100020316600290048015610f905780601f10610f6557610100808354040283529160200191610f90565b820191906000526020600020905b815481529060010190602001808311610f7357829003601f168201915b505050505092509250925092509193909250565b6000600180549050905090565b6000600182815481101515610fc257fe5b9060005260206000200160009054906101000a900473ffffffffffffffffffffffffffffffffffffffff169050919050565b828054600181600116156101000203166002900490600052602060002090601f016020900481019282601f1061103557805160ff1916838001178555611063565b82800160010185558215611063579182015b82811115611062578251825591602001919060010190611047565b5b50905061107091906110a0565b5090565b81548183558181111561109b5781836000526020600020918201910161109a91906110a0565b5b505050565b6110c291905b808211156110be5760008160009055506001016110a6565b5090565b905600a165627a7a7230582055a5ba058a046a6794549eb3326c7bb3b6779008a9dac70d09e06ff49f4823030029",
  "source": "pragma solidity ^0.4.23;\r\n\r\ncontract UserCrud {\r\n\r\n  struct UserStruct {\r\n    string userEmail;\r\n    uint userAge;\r\n    uint index;\r\n  }\r\n  \r\n  mapping(address => UserStruct) private userStructs;\r\n  address[] private userIndex;\r\n\r\n  event LogNewUser   (address indexed userAddress, uint index, string userEmail, uint userAge);\r\n  event LogUpdateUser(address indexed userAddress, uint index, string userEmail, uint userAge);\r\n  event LogDeleteUser(address indexed userAddress, uint index);\r\n  \r\n  function isUser(address userAddress)\r\n    public \r\n    constant\r\n    returns(bool isIndeed) \r\n  {\r\n    if(userIndex.length == 0) return false;\r\n    return (userIndex[userStructs[userAddress].index] == userAddress);\r\n  }\r\n\r\n  function insertUser(\r\n    address userAddress, \r\n    string userEmail, \r\n    uint    userAge) \r\n    public\r\n    returns(uint index)\r\n  {\r\n    if(isUser(userAddress)) throw; \r\n    userStructs[userAddress].userEmail = userEmail;\r\n    userStructs[userAddress].userAge   = userAge;\r\n    userStructs[userAddress].index     = userIndex.push(userAddress)-1;\r\n    LogNewUser(\r\n        userAddress, \r\n        userStructs[userAddress].index, \r\n        userEmail, \r\n        userAge);\r\n    return userIndex.length-1;\r\n  }\r\n\r\n  function deleteUser(address userAddress) \r\n    public\r\n    returns(uint index)\r\n  {\r\n    if(!isUser(userAddress)) throw; \r\n    uint rowToDelete = userStructs[userAddress].index;\r\n    address keyToMove = userIndex[userIndex.length-1];\r\n    userIndex[rowToDelete] = keyToMove;\r\n    userStructs[keyToMove].index = rowToDelete; \r\n    userIndex.length--;\r\n    LogDeleteUser(\r\n        userAddress, \r\n        rowToDelete);\r\n    LogUpdateUser(\r\n        keyToMove, \r\n        rowToDelete, \r\n        userStructs[keyToMove].userEmail, \r\n        userStructs[keyToMove].userAge);\r\n    return rowToDelete;\r\n  }\r\n  \r\n  function getUser(address userAddress)\r\n    public \r\n    constant\r\n    returns(string userEmail, uint userAge, uint index)\r\n  {\r\n    if(!isUser(userAddress)) throw; \r\n    return(\r\n      userStructs[userAddress].userEmail, \r\n      userStructs[userAddress].userAge, \r\n      userStructs[userAddress].index);\r\n  } \r\n  \r\n  function updateUserEmail(address userAddress, string userEmail) \r\n    public\r\n    returns(bool success) \r\n  {\r\n    if(!isUser(userAddress)) throw; \r\n    userStructs[userAddress].userEmail = userEmail;\r\n    LogUpdateUser(\r\n      userAddress, \r\n      userStructs[userAddress].index,\r\n      userEmail, \r\n      userStructs[userAddress].userAge);\r\n    return true;\r\n  }\r\n  \r\n  function updateUserAge(address userAddress, uint userAge) \r\n    public\r\n    returns(bool success) \r\n  {\r\n    if(!isUser(userAddress)) throw; \r\n    userStructs[userAddress].userAge = userAge;\r\n    LogUpdateUser(\r\n      userAddress, \r\n      userStructs[userAddress].index,\r\n      userStructs[userAddress].userEmail, \r\n      userAge);\r\n    return true;\r\n  }\r\n\r\n  function getUserCount() \r\n    public\r\n    constant\r\n    returns(uint count)\r\n  {\r\n    return userIndex.length;\r\n  }\r\n\r\n  function getUserAtIndex(uint index)\r\n    public\r\n    constant\r\n    returns(address userAddress)\r\n  {\r\n    return userIndex[index];\r\n  }\r\n\r\n}\r\n",
  "sourcePath": "C:\\Users\\Hasnat98044\\Desktop\\crud\\contracts\\UserCrud.sol",
  "compiler": {
    "name": "solc",
    "version": "0.4.24+commit.e67f0147.Emscripten.clang"
  },
  "schemaVersion": "2.0.1",
  "updatedAt": "2018-09-24T10:46:53.472Z"
}